{
  "_format": "hh-sol-artifact-1",
  "contractName": "Counter",
  "sourceName": "contracts/Counter.sol",
  "abi": [
    {
      "inputs": [
        {
          "internalType": "int256",
          "name": "_initialValue",
          "type": "int256"
        }
      ],
      "stateMutability": "nonpayable",
      "type": "constructor"
    },
    {
      "inputs": [],
      "name": "add",
      "outputs": [],
      "stateMutability": "nonpayable",
      "type": "function"
    },
    {
      "inputs": [],
      "name": "count",
      "outputs": [
        {
          "internalType": "int256",
          "name": "",
          "type": "int256"
        }
      ],
      "stateMutability": "view",
      "type": "function"
    },
    {
      "inputs": [],
      "name": "decrease",
      "outputs": [],
      "stateMutability": "nonpayable",
      "type": "function"
    }
  ],
  "bytecode": "0x6080604052348015600f57600080fd5b506040516102743803806102748339818101604052810190602f91906071565b80600081905550506099565b600080fd5b6000819050919050565b6051816040565b8114605b57600080fd5b50565b600081519050606b81604a565b92915050565b6000602082840312156084576083603b565b5b6000609084828501605e565b91505092915050565b6101cc806100a86000396000f3fe608060405234801561001057600080fd5b50600436106100415760003560e01c806306661abd146100465780634f2be91f14610064578063d732d9551461006e575b600080fd5b61004e610078565b60405161005b91906100c5565b60405180910390f35b61006c61007e565b005b610076610095565b005b60005481565b600160005461008d919061010f565b600081905550565b60016000546100a49190610153565b600081905550565b6000819050919050565b6100bf816100ac565b82525050565b60006020820190506100da60008301846100b6565b92915050565b7f4e487b7100000000000000000000000000000000000000000000000000000000600052601160045260246000fd5b600061011a826100ac565b9150610125836100ac565b92508282019050828112156000831216838212600084121516171561014d5761014c6100e0565b5b92915050565b600061015e826100ac565b9150610169836100ac565b92508282039050818112600084121682821360008512151617156101905761018f6100e0565b5b9291505056fea26469706673582212203153fb79a46f90ade36d2b1375ad91fc7979bbde4cdfc4ffef399b217f15034664736f6c634300081c0033",
  "linkReferences": {},
  "deployedLinkReferences": {}
}